{
  "contractName": "Kimono",
  "abi": [
    {
      "constant": true,
      "inputs": [
        {
          "name": "",
          "type": "uint256"
        },
        {
          "name": "",
          "type": "address"
        }
      ],
      "name": "messageToRevealerToRevealStatus",
      "outputs": [
        {
          "name": "",
          "type": "uint8"
        }
      ],
      "payable": false,
      "stateMutability": "view",
      "type": "function"
    },
    {
      "constant": true,
      "inputs": [
        {
          "name": "",
          "type": "uint256"
        },
        {
          "name": "",
          "type": "address"
        }
      ],
      "name": "messageToRevealerToFragments",
      "outputs": [
        {
          "name": "piece1",
          "type": "bytes32"
        },
        {
          "name": "piece2",
          "type": "bytes18"
        }
      ],
      "payable": false,
      "stateMutability": "view",
      "type": "function"
    },
    {
      "constant": true,
      "inputs": [
        {
          "name": "",
          "type": "address"
        }
      ],
      "name": "revealerTable",
      "outputs": [
        {
          "name": "publicKey",
          "type": "bytes32"
        },
        {
          "name": "minReward",
          "type": "uint256"
        },
        {
          "name": "stakePerMessage",
          "type": "uint256"
        }
      ],
      "payable": false,
      "stateMutability": "view",
      "type": "function"
    },
    {
      "constant": true,
      "inputs": [
        {
          "name": "",
          "type": "uint256"
        },
        {
          "name": "",
          "type": "address"
        }
      ],
      "name": "messageToRevealerToHashOfFragments",
      "outputs": [
        {
          "name": "",
          "type": "uint256"
        }
      ],
      "payable": false,
      "stateMutability": "view",
      "type": "function"
    },
    {
      "constant": true,
      "inputs": [
        {
          "name": "",
          "type": "uint256"
        },
        {
          "name": "",
          "type": "address"
        }
      ],
      "name": "messageToRevealerToStake",
      "outputs": [
        {
          "name": "",
          "type": "uint256"
        }
      ],
      "payable": false,
      "stateMutability": "view",
      "type": "function"
    },
    {
      "constant": true,
      "inputs": [
        {
          "name": "",
          "type": "uint256"
        }
      ],
      "name": "eligibleRevealers",
      "outputs": [
        {
          "name": "",
          "type": "address"
        }
      ],
      "payable": false,
      "stateMutability": "view",
      "type": "function"
    },
    {
      "constant": true,
      "inputs": [
        {
          "name": "",
          "type": "address"
        },
        {
          "name": "",
          "type": "uint256"
        }
      ],
      "name": "revealerToMessages",
      "outputs": [
        {
          "name": "",
          "type": "uint256"
        }
      ],
      "payable": false,
      "stateMutability": "view",
      "type": "function"
    },
    {
      "constant": true,
      "inputs": [
        {
          "name": "",
          "type": "address"
        }
      ],
      "name": "totalStakes",
      "outputs": [
        {
          "name": "",
          "type": "uint256"
        }
      ],
      "payable": false,
      "stateMutability": "view",
      "type": "function"
    },
    {
      "constant": true,
      "inputs": [],
      "name": "kimonoCoinAddress",
      "outputs": [
        {
          "name": "",
          "type": "address"
        }
      ],
      "payable": false,
      "stateMutability": "view",
      "type": "function"
    },
    {
      "constant": true,
      "inputs": [
        {
          "name": "",
          "type": "uint256"
        }
      ],
      "name": "messageToCreatedAt",
      "outputs": [
        {
          "name": "",
          "type": "uint256"
        }
      ],
      "payable": false,
      "stateMutability": "view",
      "type": "function"
    },
    {
      "constant": true,
      "inputs": [
        {
          "name": "",
          "type": "uint256"
        },
        {
          "name": "",
          "type": "uint256"
        }
      ],
      "name": "messageToRevealers",
      "outputs": [
        {
          "name": "",
          "type": "address"
        }
      ],
      "payable": false,
      "stateMutability": "view",
      "type": "function"
    },
    {
      "constant": true,
      "inputs": [
        {
          "name": "",
          "type": "uint256"
        }
      ],
      "name": "nonceToMessage",
      "outputs": [
        {
          "name": "creator",
          "type": "address"
        },
        {
          "name": "minFragments",
          "type": "uint8"
        },
        {
          "name": "totalFragments",
          "type": "uint8"
        },
        {
          "name": "revealBlock",
          "type": "uint40"
        },
        {
          "name": "revealPeriod",
          "type": "uint40"
        },
        {
          "name": "secretConstructor",
          "type": "address"
        },
        {
          "name": "creatorWithdrewStake",
          "type": "bool"
        },
        {
          "name": "secretConstructorWithdrewStake",
          "type": "bool"
        },
        {
          "name": "onTimeRevealerCount",
          "type": "uint8"
        },
        {
          "name": "revealSecret",
          "type": "uint256"
        },
        {
          "name": "hashOfRevealSecret",
          "type": "uint256"
        },
        {
          "name": "timeLockReward",
          "type": "uint256"
        },
        {
          "components": [
            {
              "name": "hashFunction",
              "type": "uint8"
            },
            {
              "name": "digestSize",
              "type": "uint8"
            },
            {
              "name": "hash",
              "type": "bytes32"
            }
          ],
          "name": "encryptedMessage",
          "type": "tuple"
        },
        {
          "components": [
            {
              "name": "hashFunction",
              "type": "uint8"
            },
            {
              "name": "digestSize",
              "type": "uint8"
            },
            {
              "name": "hash",
              "type": "bytes32"
            }
          ],
          "name": "encryptedFragments",
          "type": "tuple"
        }
      ],
      "payable": false,
      "stateMutability": "view",
      "type": "function"
    },
    {
      "inputs": [
        {
          "name": "_kimonoCoinAddress",
          "type": "address"
        }
      ],
      "payable": false,
      "stateMutability": "nonpayable",
      "type": "constructor"
    },
    {
      "payable": false,
      "stateMutability": "nonpayable",
      "type": "fallback"
    },
    {
      "anonymous": false,
      "inputs": [
        {
          "indexed": false,
          "name": "nonce",
          "type": "uint256"
        },
        {
          "indexed": false,
          "name": "creator",
          "type": "address"
        },
        {
          "indexed": false,
          "name": "encryptedFragmentsIPFSHash",
          "type": "bytes"
        },
        {
          "indexed": false,
          "name": "revealerAddresses",
          "type": "address[]"
        }
      ],
      "name": "MessageCreation",
      "type": "event"
    },
    {
      "anonymous": false,
      "inputs": [
        {
          "indexed": false,
          "name": "nonce",
          "type": "uint256"
        },
        {
          "indexed": false,
          "name": "revealer",
          "type": "address"
        },
        {
          "indexed": false,
          "name": "minFragments",
          "type": "uint8"
        },
        {
          "indexed": false,
          "name": "onTimeRevealerCount",
          "type": "uint8"
        },
        {
          "indexed": false,
          "name": "fragment",
          "type": "bytes"
        }
      ],
      "name": "FragmentReveal",
      "type": "event"
    },
    {
      "anonymous": false,
      "inputs": [
        {
          "indexed": false,
          "name": "nonce",
          "type": "uint256"
        },
        {
          "indexed": false,
          "name": "revealer",
          "type": "address"
        },
        {
          "indexed": false,
          "name": "secret",
          "type": "uint256"
        }
      ],
      "name": "SecretReveal",
      "type": "event"
    },
    {
      "anonymous": false,
      "inputs": [
        {
          "indexed": false,
          "name": "withdrawer",
          "type": "address"
        },
        {
          "indexed": false,
          "name": "amount",
          "type": "uint256"
        }
      ],
      "name": "StakeWithdrawal",
      "type": "event"
    },
    {
      "anonymous": false,
      "inputs": [
        {
          "indexed": false,
          "name": "nonce",
          "type": "uint256"
        },
        {
          "indexed": false,
          "name": "tattler",
          "type": "address"
        },
        {
          "indexed": false,
          "name": "tattlee",
          "type": "address"
        },
        {
          "indexed": false,
          "name": "fragment",
          "type": "bytes"
        }
      ],
      "name": "TattleTale",
      "type": "event"
    },
    {
      "constant": false,
      "inputs": [
        {
          "name": "_publicKey",
          "type": "bytes32"
        },
        {
          "name": "_minReward",
          "type": "uint256"
        },
        {
          "name": "_stakePerMessage",
          "type": "uint256"
        },
        {
          "name": "_totalStake",
          "type": "uint256"
        }
      ],
      "name": "registerRevealer",
      "outputs": [],
      "payable": false,
      "stateMutability": "nonpayable",
      "type": "function"
    },
    {
      "constant": true,
      "inputs": [
        {
          "name": "_revealer",
          "type": "address"
        }
      ],
      "name": "getReservedAmount",
      "outputs": [
        {
          "name": "",
          "type": "uint256"
        }
      ],
      "payable": false,
      "stateMutability": "view",
      "type": "function"
    },
    {
      "constant": false,
      "inputs": [
        {
          "name": "_nonce",
          "type": "uint256"
        },
        {
          "name": "_minFragments",
          "type": "uint8"
        },
        {
          "name": "_totalFragments",
          "type": "uint8"
        },
        {
          "name": "_revealBlock",
          "type": "uint40"
        },
        {
          "name": "_revealPeriod",
          "type": "uint40"
        },
        {
          "name": "_hashOfRevealSecret",
          "type": "uint256"
        },
        {
          "name": "_timeLockReward",
          "type": "uint256"
        },
        {
          "name": "_revealerAddresses",
          "type": "address[]"
        },
        {
          "name": "_revealerHashOfFragments",
          "type": "uint256[]"
        },
        {
          "name": "_encryptedMessageIPFSHash",
          "type": "bytes"
        },
        {
          "name": "_encryptedFragmentsIPFSHash",
          "type": "bytes"
        }
      ],
      "name": "createMessage",
      "outputs": [],
      "payable": false,
      "stateMutability": "nonpayable",
      "type": "function"
    },
    {
      "constant": false,
      "inputs": [
        {
          "name": "_nonce",
          "type": "uint256"
        },
        {
          "name": "_fragment",
          "type": "bytes"
        }
      ],
      "name": "revealFragment",
      "outputs": [],
      "payable": false,
      "stateMutability": "nonpayable",
      "type": "function"
    },
    {
      "constant": false,
      "inputs": [
        {
          "name": "_nonce",
          "type": "uint256"
        },
        {
          "name": "_secret",
          "type": "uint256"
        }
      ],
      "name": "submitRevealSecret",
      "outputs": [],
      "payable": false,
      "stateMutability": "nonpayable",
      "type": "function"
    },
    {
      "constant": false,
      "inputs": [
        {
          "name": "_nonce",
          "type": "uint256"
        },
        {
          "name": "_fragment",
          "type": "bytes"
        },
        {
          "name": "_tattlee",
          "type": "address"
        }
      ],
      "name": "tattle",
      "outputs": [],
      "payable": false,
      "stateMutability": "nonpayable",
      "type": "function"
    },
    {
      "constant": false,
      "inputs": [
        {
          "name": "_nonce",
          "type": "uint256"
        }
      ],
      "name": "withdrawStake",
      "outputs": [],
      "payable": false,
      "stateMutability": "nonpayable",
      "type": "function"
    },
    {
      "constant": true,
      "inputs": [
        {
          "name": "_nonce",
          "type": "uint256"
        }
      ],
      "name": "getMessage",
      "outputs": [
        {
          "name": "nonce",
          "type": "uint256"
        },
        {
          "name": "creator",
          "type": "address"
        },
        {
          "name": "secretConstructor",
          "type": "address"
        },
        {
          "name": "minFragments",
          "type": "uint8"
        },
        {
          "name": "totalFragments",
          "type": "uint8"
        },
        {
          "name": "revealBlock",
          "type": "uint40"
        },
        {
          "name": "revealPeriod",
          "type": "uint40"
        },
        {
          "name": "revealSecret",
          "type": "uint256"
        },
        {
          "name": "hashOfRevealSecret",
          "type": "uint256"
        },
        {
          "name": "timeLockReward",
          "type": "uint256"
        },
        {
          "name": "encryptedMessage",
          "type": "bytes"
        },
        {
          "name": "encryptedFragments",
          "type": "bytes"
        }
      ],
      "payable": false,
      "stateMutability": "view",
      "type": "function"
    },
    {
      "constant": true,
      "inputs": [
        {
          "name": "_nonce",
          "type": "uint256"
        }
      ],
      "name": "getMessageCreatedAt",
      "outputs": [
        {
          "name": "",
          "type": "uint256"
        }
      ],
      "payable": false,
      "stateMutability": "view",
      "type": "function"
    },
    {
      "constant": true,
      "inputs": [
        {
          "name": "_revealer",
          "type": "address"
        }
      ],
      "name": "getMessageNoncesForRevealer",
      "outputs": [
        {
          "name": "nonces",
          "type": "uint256[]"
        }
      ],
      "payable": false,
      "stateMutability": "view",
      "type": "function"
    },
    {
      "constant": true,
      "inputs": [],
      "name": "getEligibleRevealersCount",
      "outputs": [
        {
          "name": "count",
          "type": "uint256"
        }
      ],
      "payable": false,
      "stateMutability": "view",
      "type": "function"
    },
    {
      "constant": true,
      "inputs": [
        {
          "name": "_nonce",
          "type": "uint256"
        },
        {
          "name": "_revealer",
          "type": "address"
        }
      ],
      "name": "getFragmentByMessageAndRevealer",
      "outputs": [
        {
          "name": "piece1",
          "type": "bytes32"
        },
        {
          "name": "piece2",
          "type": "bytes18"
        }
      ],
      "payable": false,
      "stateMutability": "view",
      "type": "function"
    },
    {
      "constant": true,
      "inputs": [
        {
          "name": "_fragment",
          "type": "bytes"
        }
      ],
      "name": "test_getFragmentHash",
      "outputs": [
        {
          "name": "hash",
          "type": "bytes32"
        }
      ],
      "payable": false,
      "stateMutability": "view",
      "type": "function"
    },
    {
      "constant": true,
      "inputs": [
        {
          "name": "fragmentHash",
          "type": "uint256"
        },
        {
          "name": "_fragment",
          "type": "bytes"
        }
      ],
      "name": "test_compareFragmentHash",
      "outputs": [
        {
          "name": "hash",
          "type": "bytes32"
        },
        {
          "name": "realHash",
          "type": "bytes32"
        },
        {
          "name": "isEqual",
          "type": "bool"
        }
      ],
      "payable": false,
      "stateMutability": "view",
      "type": "function"
    }
  ],
  "bytecode": "0x60806040526000805460ff1916905534801561001a57600080fd5b506040516020806137ff8339810160405251600c8054600160a060020a031916600160a060020a039092169190911790556137a58061005a6000396000f3006080604052600436106101535763ffffffff7c010000000000000000000000000000000000000000000000000000000060003504166303da783f811461016257806325d5971f1461019457806326a9fc34146101ae5780632e601fbf1461021f5780632f23e09a1461026c57806345c52483146102b45780634d6f808c146102d85780634f046704146102f95780636bae8520146103115780636f68b4141461035057806376bfa69d14610394578063771fb182146103a957806386f79edb146104125780638c4f49421461059a57806398d330be146105be5780639c82b5fb146105e2578063a7296f9214610616578063b0a4c98814610674578063ca9d033d14610698578063d2ea4b54146107d4578063df349ed5146107ef578063e6ecc9c114610810578063ea17036014610831578063f3ff75ca14610846578063f91d9cfa1461085e578063fff0242814610879575b34801561015f57600080fd5b50005b34801561016e57600080fd5b50610182600480356024810191013561095c565b60408051918252519081900360200190f35b3480156101a057600080fd5b506101ac6004356109dd565b005b3480156101ba57600080fd5b506101cf600160a060020a0360043516610d57565b60408051602080825283518183015283519192839290830191858101910280838360005b8381101561020b5781810151838201526020016101f3565b505050509050019250505060405180910390f35b34801561022b57600080fd5b50610243600435600160a060020a0360243516610dc3565b604080519283526dffffffffffffffffffffffffffff1990911660208301528051918290030190f35b34801561027857600080fd5b50610290600435600160a060020a0360243516610e39565b604051808260028111156102a057fe5b60ff16815260200191505060405180910390f35b3480156102c057600080fd5b50610243600435600160a060020a0360243516610e59565b3480156102e457600080fd5b506101ac600435602435604435606435610e8e565b34801561030557600080fd5b506101826004356110f9565b34801561031d57600080fd5b50610332600160a060020a036004351661110b565b60408051938452602084019290925282820152519081900360600190f35b34801561035c57600080fd5b5061037460048035906024803590810191013561112c565b604080519384526020840192909252151582820152519081900360600190f35b3480156103a057600080fd5b506101826111d1565b3480156103b557600080fd5b5060408051602060046024803582810135601f81018590048502860185019096528585526101ac95833595369560449491939091019190819084018382808284375094975050509235600160a060020a031693506111d892505050565b34801561041e57600080fd5b5061042a6004356115be565b604051808d81526020018c600160a060020a0316600160a060020a031681526020018b600160a060020a0316600160a060020a031681526020018a60ff1660ff1681526020018960ff1660ff1681526020018864ffffffffff1664ffffffffff1681526020018764ffffffffff1664ffffffffff1681526020018681526020018581526020018481526020018060200180602001838103835285818151815260200191508051906020019080838360005b838110156104f35781810151838201526020016104db565b50505050905090810190601f1680156105205780820380516001836020036101000a031916815260200191505b50838103825284518152845160209182019186019080838360005b8381101561055357818101518382015260200161053b565b50505050905090810190601f1680156105805780820380516001836020036101000a031916815260200191505b509e50505050505050505050505050505060405180910390f35b3480156105a657600080fd5b50610182600435600160a060020a036024351661188c565b3480156105ca57600080fd5b50610182600435600160a060020a03602435166118a9565b3480156105ee57600080fd5b506105fa6004356118c6565b60408051600160a060020a039092168252519081900360200190f35b34801561062257600080fd5b5060408051602060046024803582810135601f81018590048502860185019096528585526101ac9583359536956044949193909101919081908401838280828437509497506118ee9650505050505050565b34801561068057600080fd5b50610182600160a060020a0360043516602435611e24565b3480156106a457600080fd5b506040805160e435600481810135602081810285810182019096528185526101ac9583359560ff602480358216976044359092169664ffffffffff6064358116976084359091169660a4359660c43596369694956101049591949101929091829185019084908082843750506040805187358901803560208181028481018201909552818452989b9a99890198929750908201955093508392508501908490808284375050604080516020601f89358b018035918201839004830284018301909452808352979a99988101979196509182019450925082915084018382808284375050604080516020601f89358b018035918201839004830284018301909452808352979a999881019791965091820194509250829150840183828082843750949750611e549650505050505050565b3480156107e057600080fd5b506101ac6004356024356126c2565b3480156107fb57600080fd5b50610182600160a060020a036004351661295b565b34801561081c57600080fd5b50610182600160a060020a036004351661296d565b34801561083d57600080fd5b506105fa612a0d565b34801561085257600080fd5b50610182600435612a1c565b34801561086a57600080fd5b506105fa600435602435612a2e565b34801561088557600080fd5b50610891600435612a65565b604051808f600160a060020a0316600160a060020a031681526020018e60ff1660ff1681526020018d60ff1660ff1681526020018c64ffffffffff1664ffffffffff1681526020018b64ffffffffff1664ffffffffff1681526020018a600160a060020a0316600160a060020a0316815260200189151515158152602001881515151581526020018760ff1660ff1681526020018681526020018581526020018481526020018381526020018281526020019e50505050505050505050505050505060405180910390f35b60006109666135bc565b61099f84848080601f01602080910402602001604051908101604052809392919081815260200183838082843750612b5f945050505050565b8051602080830151604080519384526dffffffffffffffffffffffffffff199091169183019190915251908190036032019020925090505092915050565b60008181526001602052604081205481908390600160a060020a03161515610a3d576040805160e560020a62461bcd028152602060048201526017602482015260008051602061375a833981519152604482015290519081900360640190fd5b600084815260016020526040902054849060b060020a810464ffffffffff90811660d860020a90920481169190910181164390911611610ac7576040805160e560020a62461bcd02815260206004820152601a60248201527f52657665616c20706572696f64206973206e6f74206f7665722e000000000000604482015290519081900360640190fd5b6000858152600160205260408120805490955090935033600160a060020a039081169116148015610b155750600184015474010000000000000000000000000000000000000000900460ff16155b15610b6d5760018401805474ff0000000000000000000000000000000000000000191674010000000000000000000000000000000000000000179055610b6a610b5d86612c63565b849063ffffffff612d6416565b92505b600184015433600160a060020a039081169116148015610bab575060018401547501000000000000000000000000000000000000000000900460ff16155b15610c17576001848101805475ff0000000000000000000000000000000000000000001916750100000000000000000000000000000000000000000017908190556004860154610c1492610b5d9260b060020a900460ff9081169091011663ffffffff612d7716565b92505b600085815260076020908152604080832033600160a060020a0316845290915281205460ff166002811115610c4857fe5b14610c5c57610c59610b5d86612d8c565b92505b6000831115610d5057600c54604080517fa9059cbb000000000000000000000000000000000000000000000000000000008152600160a060020a033381166004830152602482018790529151919092169163a9059cbb9160448083019260209291908290030181600087803b158015610cd457600080fd5b505af1158015610ce8573d6000803e3d6000fd5b505050506040513d6020811015610cfe57600080fd5b50511515610d0b57600080fd5b60408051600160a060020a03331681526020810185905281517ff0ed97f7b968f9d8268bc8d104a11b3586ceeadd0e0af5f73769e2b479f9d0ae929181900390910190a15b5050505050565b600160a060020a038116600090815260026020908152604091829020805483518184028101840190945280845260609392830182828015610db757602002820191906000526020600020905b815481526020019060010190808311610da3575b50505050509050919050565b600080610dce6135bc565b5050506000828152600560209081526040808320600160a060020a0385168452825291829020825180840190935280548084526001909101546e010000000000000000000000000000026dffffffffffffffffffffffffffff1916918301829052915b509250929050565b600760209081526000928352604080842090915290825290205460ff1681565b6005602090815260009283526040808420909152908252902080546001909101546e0100000000000000000000000000000282565b610e966135d3565b6000805481908190819060ff1615610ead57600080fd5b6000805460ff19166001179055604080516060810182528a8152602081018a90529081018890529450610edf3361296d565b935083861015610eee57600080fd5b600160a060020a033316600090815260096020526040902054925085831415610f165761109b565b82861115610fe357610f2e868463ffffffff612fd316565b600c54604080517f23b872dd000000000000000000000000000000000000000000000000000000008152600160a060020a03338116600483015230811660248301526044820185905291519395509116916323b872dd916064808201926020929091908290030181600087803b158015610fa757600080fd5b505af1158015610fbb573d6000803e3d6000fd5b505050506040513d6020811015610fd157600080fd5b50511515610fde57600080fd5b61109b565b610ff3838763ffffffff612fd316565b600c54604080517fa9059cbb000000000000000000000000000000000000000000000000000000008152600160a060020a03338116600483015260248201859052915193945091169163a9059cbb916044808201926020929091908290030181600087803b15801561106457600080fd5b505af1158015611078573d6000803e3d6000fd5b505050506040513d602081101561108e57600080fd5b5051151561109b57600080fd5b33600160a060020a03811660009081526009602090815260408083208a9055600882529182902088518155908801516001820155908701516002909101556110e4908589612fe5565b50506000805460ff1916905550505050505050565b60009081526004602052604090205490565b60086020526000908152604090208054600182015460029092015490919083565b60008060006111396135bc565b61117286868080601f01602080910402602001604051908101604052809392919081815260200183838082843750612b5f945050505050565b805160208083018051604080519485526dffffffffffffffffffffffffffff1991821685850152805194859003603290810186209651935193865292909116928401929092529051918290030190209798909789149650945050505050565b600b545b90565b6000838152600160205260408120548490600160a060020a03161515611236576040805160e560020a62461bcd028152602060048201526017602482015260008051602061375a833981519152604482015290519081900360640190fd5b8484846112416135bc565b61124a83612b5f565b8051602080830151604080519384526dffffffffffffffffffffffffffff1990911683830152805192839003603201909220600088815260068352838120600160a060020a03881682529092529190205491925014611319576040805160e560020a62461bcd02815260206004820152602760248201527f52657665616c6572207375626d697474656420616e20696e76616c696420667260448201527f61676d656e742e00000000000000000000000000000000000000000000000000606482015290519081900360840190fd5b600089815260016020526040902054899064ffffffffff60b060020a90910481164390911610611393576040805160e560020a62461bcd02815260206004820152601e60248201527f52657665616c20706572696f6420616c726561647920737461727465642e0000604482015290519081900360640190fd5b60008a8152600a60209081526040808320600160a060020a038c168085529083528184208054908590558e855260068452828520918552925282209190915596506113dd89612b5f565b60008b8152600560209081526040808320600160a060020a038d8116855290835281842085518155948301516001909501805471ffffffffffffffffffffffffffffffffffff19166e01000000000000000000000000000090960495909517909455600c5481517f23b872dd00000000000000000000000000000000000000000000000000000000815230861660048201523386166024820152604481018d905291519416936323b872dd93606480840194938390030190829087803b1580156114a657600080fd5b505af11580156114ba573d6000803e3d6000fd5b505050506040513d60208110156114d057600080fd5b505115156114dd57600080fd5b7f4bc7f9c94c11d68a7ac8f1ef26d3f54fdb103e12b75f6237f5f34fac96931edc8a338a8c6040518085815260200184600160a060020a0316600160a060020a0316815260200183600160a060020a0316600160a060020a0316815260200180602001828103825283818151815260200191508051906020019080838360005b8381101561157557818101518382015260200161155d565b50505050905090810190601f1680156115a25780820380516001836020036101000a031916815260200191505b509550505050505060405180910390a150505050505050505050565b6000806000806000806000806000806060806115d86135f3565b600160008f81526020019081526020016000206101c060405190810160405290816000820160009054906101000a9004600160a060020a0316600160a060020a0316600160a060020a031681526020016000820160149054906101000a900460ff1660ff1660ff1681526020016000820160159054906101000a900460ff1660ff1660ff1681526020016000820160169054906101000a900464ffffffffff1664ffffffffff1664ffffffffff16815260200160008201601b9054906101000a900464ffffffffff1664ffffffffff1664ffffffffff1681526020016001820160009054906101000a9004600160a060020a0316600160a060020a0316600160a060020a031681526020016001820160149054906101000a900460ff161515151581526020016001820160159054906101000a900460ff161515151581526020016001820160169054906101000a900460ff1660ff1660ff16815260200160028201548152602001600382015481526020016004820154815260200160058201606060405190810160405290816000820160009054906101000a900460ff1660ff1660ff1681526020016000820160019054906101000a900460ff1660ff1660ff1681526020016001820154600019166000191681525050815260200160078201606060405190810160405290816000820160009054906101000a900460ff1660ff1660ff1681526020016000820160019054906101000a900460ff1660ff1660ff16815260200160018201546000191660001916815250508152505090508d81600001518260a0015183602001518460400151856060015186608001518761012001518861014001518961016001516118568b610180015161310e565b6118648c6101a0015161310e565b9c509c509c509c509c509c509c509c509c509c509c509c505091939597999b5091939597999b565b600660209081526000928352604080842090915290825290205481565b600a60209081526000928352604080842090915290825290205481565b600b8054829081106118d457fe5b600091825260209091200154600160a060020a0316905081565b6000828152600160205260408120548390600160a060020a0316151561194c576040805160e560020a62461bcd028152602060048201526017602482015260008051602061375a833981519152604482015290519081900360640190fd5b600084815260016020526040902054849064ffffffffff60b060020a909104811643909116116119c6576040805160e560020a62461bcd02815260206004820152601c60248201527f52657665616c20706572696f6420646964206e6f742073746172742e00000000604482015290519081900360640190fd5b600085815260016020526040902054859060b060020a810464ffffffffff90811660d860020a90920481169190910181164390911610611a50576040805160e560020a62461bcd02815260206004820152601660248201527f52657665616c20706572696f64206973206f7665722e00000000000000000000604482015290519081900360640190fd5b858533611a5b6135bc565b611a6483612b5f565b8051602080830151604080519384526dffffffffffffffffffffffffffff1990911683830152805192839003603201909220600088815260068352838120600160a060020a03881682529092529190205491925014611b33576040805160e560020a62461bcd02815260206004820152602760248201527f52657665616c6572207375626d697474656420616e20696e76616c696420667260448201527f61676d656e742e00000000000000000000000000000000000000000000000000606482015290519081900360840190fd5b60008a8152600660209081526040808320600160a060020a03331684529091529020541515611bd2576040805160e560020a62461bcd02815260206004820152602c60248201527f4d6573736167652073656e646572206973206e6f742070617274206f6620746860448201527f652072657665616c6572732e0000000000000000000000000000000000000000606482015290519081900360840190fd5b60008a8152600660209081526040808320600160a060020a0333168452909152812055611bfe89612b5f565b60008b815260056020908152604080832033600160a060020a03908116855290835281842085518155948301516001958601805471ffffffffffffffffffffffffffffffffffff19166e0100000000000000000000000000009092049190911790558e84529184905290912090910154161515611cf15760008a815260076020908152604080832033600160a060020a031684528252808320805460ff191660021790558c8352600191829052909120808201805476ff0000000000000000000000000000000000000000000019811660b060020a9182900460ff90811690950190941602929092179091559750611d1f565b60008a815260076020908152604080832033600160a060020a031684529091529020805460ff191660011790555b7f3517350babd9e08678a07770227f725608af3a7e92faf4a9a1e2b2d7d0219ae58a338a60000160149054906101000a900460ff168b60010160169054906101000a900460ff168d6040518086815260200185600160a060020a0316600160a060020a031681526020018460ff1660ff1681526020018360ff1660ff16815260200180602001828103825283818151815260200191508051906020019080838360005b83811015611dda578181015183820152602001611dc2565b50505050905090810190601f168015611e075780820380516001836020036101000a031916815260200191505b50965050505050505060405180910390a150505050505050505050565b600260205281600052604060002081815481101515611e3f57fe5b90600052602060002001600091509150505481565b600084611e6081613249565b15611e6a57600080fd5b60008d815260016020526040902054600160a060020a031615611ed7576040805160e560020a62461bcd02815260206004820152601760248201527f4d6573736167652065786973747320616c72656164792e000000000000000000604482015290519081900360640190fd5b64ffffffffff438116908b1611611f5e576040805160e560020a62461bcd02815260206004820152602260248201527f52657665616c20626c6f636b206973206e6f7420696e2074686520667574757260448201527f652e000000000000000000000000000000000000000000000000000000000000606482015290519081900360840190fd5b600a64ffffffffff8a161015611fe4576040805160e560020a62461bcd02815260206004820152602160248201527f52657665616c20706572696f64206973206e6f74206c6f6e6720656e6f75676860448201527f2e00000000000000000000000000000000000000000000000000000000000000606482015290519081900360840190fd5b600260ff8d161015612065576040805160e560020a62461bcd028152602060048201526024808201527f546865206d696e696d756d206e756d626572206f6620667261676d656e74732060448201527f6973203200000000000000000000000000000000000000000000000000000000606482015290519081900360840190fd5b855160ff8c16146120c0576040805160e560020a62461bcd02815260206004820152601d60248201527f496e636f7272656374206e756d626572206f6620667261676d656e7473000000604482015290519081900360640190fd5b845160ff8c161461211b576040805160e560020a62461bcd02815260206004820152601d60248201527f496e636f7272656374206e756d626572206f6620667261676d656e7473000000604482015290519081900360640190fd5b612125868e6132d7565b6101c06040519081016040528033600160a060020a031681526020018d60ff1681526020018c60ff1681526020018b64ffffffffff1681526020018a64ffffffffff1681526020016000600160a060020a03168152602001600015158152602001600015158152602001600060ff168152602001600081526020018981526020018881526020016121b5866133f0565b81526020016121c3856133f0565b815250600160008f815260200190815260200160002060008201518160000160006101000a815481600160a060020a030219169083600160a060020a0316021790555060208201518160000160146101000a81548160ff021916908360ff16021790555060408201518160000160156101000a81548160ff021916908360ff16021790555060608201518160000160166101000a81548164ffffffffff021916908364ffffffffff160217905550608082015181600001601b6101000a81548164ffffffffff021916908364ffffffffff16021790555060a08201518160010160006101000a815481600160a060020a030219169083600160a060020a0316021790555060c08201518160010160146101000a81548160ff02191690831515021790555060e08201518160010160156101000a81548160ff0219169083151502179055506101008201518160010160166101000a81548160ff021916908360ff1602179055506101208201518160020155610140820151816003015561016082015181600401556101808201518160050160008201518160000160006101000a81548160ff021916908360ff16021790555060208201518160000160016101000a81548160ff021916908360ff1602179055506040820151816001019060001916905550506101a08201518160070160008201518160000160006101000a81548160ff021916908360ff16021790555060208201518160000160016101000a81548160ff021916908360ff160217905550604082015181600101906000191690555050905050600091505b85518210156124d757848281518110151561242557fe5b90602001906020020151600660008f81526020019081526020016000206000888581518110151561245257fe5b90602001906020020151600160a060020a0316600160a060020a031681526020019081526020016000208190555060026000878481518110151561249257fe5b6020908102909101810151600160a060020a03168252818101929092526040016000908120805460018181018355918352929091209091018e9055919091019061240e565b60008d815260036020908152604090912087516124f692890190613673565b5060008d8152600460208181526040808420429055600c5481517f23b872dd000000000000000000000000000000000000000000000000000000008152600160a060020a03338116958201959095523085166024820152604481018d905291519316936323b872dd93606480840194939192918390030190829087803b15801561257f57600080fd5b505af1158015612593573d6000803e3d6000fd5b505050506040513d60208110156125a957600080fd5b505115156125b657600080fd5b7f3278b9a189fb812ec272df97b05df104b12131df481793b0b0a3b014417835db8d3385896040518085815260200184600160a060020a0316600160a060020a031681526020018060200180602001838103835285818151815260200191508051906020019080838360005b8381101561263a578181015183820152602001612622565b50505050905090810190601f1680156126675780820380516001836020036101000a031916815260200191505b508381038252845181528451602091820191808701910280838360005b8381101561269c578181015183820152602001612684565b50505050905001965050505050505060405180910390a150505050505050505050505050565b6000828152600160205260408120548390600160a060020a03161515612720576040805160e560020a62461bcd028152602060048201526017602482015260008051602061375a833981519152604482015290519081900360640190fd5b600084815260016020526040902054849064ffffffffff60b060020a9091048116439091161161279a576040805160e560020a62461bcd02815260206004820152601c60248201527f52657665616c20706572696f6420646964206e6f742073746172742e00000000604482015290519081900360640190fd5b60008581526001602081905260409091200154600160a060020a031615612831576040805160e560020a62461bcd02815260206004820152602360248201527f4d6573736167652073656372657420697320616c72656164792072657665616c60448201527f65642e0000000000000000000000000000000000000000000000000000000000606482015290519081900360840190fd5b604080518581528151602091819003820190206000888152600190925291902060030154146128d0576040805160e560020a62461bcd02815260206004820152602560248201527f52657665616c6572207375626d697474656420616e20696e76616c696420736560448201527f637265742e000000000000000000000000000000000000000000000000000000606482015290519081900360840190fd5b600085815260016020818152604092839020600281018890559182018054600160a060020a03331673ffffffffffffffffffffffffffffffffffffffff19909116811790915583518981529182015280830187905291519094507f5f6ed98eeb5ecbccd10abffe4841f1e1394f180035d8453110d49daf7ddd33569181900360600190a15050505050565b60096020526000908152604090205481565b60008080805b600160a060020a038516600090815260026020526040902054821015612a0457600160a060020a03851660009081526002602052604090208054839081106129b757fe5b6000918252602080832090910154808352600a82526040808420600160a060020a038a1685529092529120549091506129f790849063ffffffff612d6416565b9250600190910190612973565b50909392505050565b600c54600160a060020a031681565b60046020526000908152604090205481565b600360205281600052604060002081815481101515612a4957fe5b600091825260209091200154600160a060020a03169150829050565b600160208181526000928352604092839020805492810154600282015460038301546004840154875160608082018a52600587015460ff8082168452610100918290048116848b01526006890154848d01528b519283018c52600789015480821684529190910481169882019890985260089096015498860198909852600160a060020a038088169874010000000000000000000000000000000000000000808a0489169975010000000000000000000000000000000000000000008082048b169a60b060020a80840464ffffffffff9081169c60d860020a909504169a968716999487048216989287048216979604169492939092918e565b612b676135bc565b600080805b6020811015612bcf57806008028582815181101515612b8757fe5b60209101015160029190910a60f860020a918290049091027fff0000000000000000000000000000000000000000000000000000000000000016049290921791600101612b6c565b5060005b6012811015612c3957806008028582602001815181101515612bf157fe5b60209101015160029190910a60f860020a918290049091027fff0000000000000000000000000000000000000000000000000000000000000016049190911790600101612bd3565b50604080518082019091529182526dffffffffffffffffffffffffffff1916602082015292915050565b6000808080805b600086815260036020526040902054831015612d5a576000868152600360205260409020805484908110612c9a57fe5b6000918252602082200154600160a060020a031692506000878152600760209081526040808320600160a060020a038716845290915290205460ff166002811115612ce157fe5b1415612d4f57506000858152600a60209081526040808320600160a060020a03851684528252808320805490849055600990925290912054612d239082612fd3565b600160a060020a038316600090815260096020526040902055612d4c848263ffffffff612d6416565b93505b600190920191612c6a565b5091949350505050565b81810182811015612d7157fe5b92915050565b60008183811515612d8457fe5b049392505050565b6000612d966135f3565b50600082815260016020818152604080842081516101c0810183528154600160a060020a0380821683527401000000000000000000000000000000000000000080830460ff90811685890152750100000000000000000000000000000000000000000080850482168689015260b060020a80860464ffffffffff9081166060808a019190915260d860020a9097041660808801529987015480851660a08801529283048216151560c087015282048116151560e0860152979004871661010080850191909152600285015461012085015260038501546101408501526004850154610160850152855180840187526005860154808a16825282900489168189015260068601548188015261018085015285519283018652600785015480891684520490961681860152600890920154828401526101a0810191909152868552600a83528185203390941685529290915282205490919081811115612fcb576000858152600a60209081526040808320600160a060020a033316845282528083208390556009909152902054612f31908263ffffffff612fd316565b600160a060020a033316600090815260096020526040902055612f5a828263ffffffff612d6416565b915060026000868152600760209081526040808320600160a060020a033316845290915290205460ff166002811115612f8f57fe5b1415612fcb57612fc8612fbb84610100015160010160ff16856101600151612d7790919063ffffffff16565b839063ffffffff612d6416565b91505b509392505050565b600082821115612fdf57fe5b50900390565b60008061305585600b80548060200260200160405190810160405280929190818152602001828054801561304257602002820191906000526020600020905b8154600160a060020a03168152600190910190602001808311613024575b505050505061348a90919063ffffffff16565b600160a060020a03871660009081526009602052604090205491935091508390613085908663ffffffff612fd316565b106130ef578015156130ea57600b80546001810182556000919091527f0175b7a638427703f0dbe7bb9bbf987a2551717b34e79f33b5b1008d1fa01db901805473ffffffffffffffffffffffffffffffffffffffff1916600160a060020a0387161790555b610d50565b8015610d5057613106600b8363ffffffff6134ea16565b505050505050565b60408051602280825260608083019093528291600091602082016104408038833950508551825192945060f860020a0291849150600090811061314d57fe5b9060200101907effffffffffffffffffffffffffffffffffffffffffffffffffffffffffffff1916908160001a905350836020015160f860020a0282600181518110151561319757fe5b9060200101907effffffffffffffffffffffffffffffffffffffffffffffffffffffffffffff1916908160001a905350600090505b60208160ff16101561323e57604084015160ff8216602081106131eb57fe5b1a60f860020a02828260020160ff1681518110151561320657fe5b9060200101907effffffffffffffffffffffffffffffffffffffffffffffffffffffffffffff1916908160001a9053506001016131cc565b8192505b5050919050565b600080805b60018451038210156132cd5750600181015b83518110156132c257838181518110151561327757fe5b90602001906020020151600160a060020a0316848381518110151561329857fe5b90602001906020020151600160a060020a031614156132ba5760019250613242565b600101613260565b60019091019061324e565b5060009392505050565b6000806132e26135d3565b60008093505b85518410156131065785848151811015156132ff57fe5b6020908102909101810151600160a060020a0381166000908152600883526040908190208151606081018352815481526001820154948101949094526002015490830152935091506133503361296d565b604080840151600160a060020a03861660009081526009602052919091205491925090613383908363ffffffff612fd316565b1161338d57600080fd5b600160a060020a038316600081815260026020908152604080832080546001810182559084528284200189905585810180518a8552600a84528285209585529490925290912091909155516133e59084908390612fe5565b6001909301926132e8565b6133f86135d3565b600080600084600081518110151561340c57fe5b90602001015160f860020a900460f860020a0260f860020a9004925084600181518110151561343757fe5b90602001015160f860020a900460f860020a0260f860020a90049150602285015190506060604051908101604052808460ff1681526020018360ff16815260200182600019168152509350505050919050565b600080805b84518110156134dd5783600160a060020a031685828151811015156134b057fe5b90602001906020020151600160a060020a031614156134d55780600192509250610e31565b60010161348f565b5060009485945092505050565b815460009082106134fd57508154612d71565b82548390600019810190811061350f57fe5b6000918252602090912001548354600160a060020a039091169084908490811061353557fe5b6000918252602090912001805473ffffffffffffffffffffffffffffffffffffffff1916600160a060020a039290921691909117905582548390600019810190811061357d57fe5b6000918252602090912001805473ffffffffffffffffffffffffffffffffffffffff1916905582546135b38460001983016136e5565b50509054919050565b604080518082019091526000808252602082015290565b604080516060810182526000808252602082018190529181019190915290565b6040805161024081018252600080825260208201819052918101829052606081018290526080810182905260a0810182905260c0810182905260e0810182905261010081018290526101208101829052610140810182905261016081019190915261018081016136616135d3565b815260200161366e6135d3565b905290565b8280548282559060005260206000209081019282156136d5579160200282015b828111156136d5578251825473ffffffffffffffffffffffffffffffffffffffff1916600160a060020a03909116178255602090920191600190910190613693565b506136e192915061370e565b5090565b8154818355818111156137095760008381526020902061370991810190830161373f565b505050565b6111d591905b808211156136e157805473ffffffffffffffffffffffffffffffffffffffff19168155600101613714565b6111d591905b808211156136e1576000815560010161374556004d65737361676520646f6573206e6f742065786973742e000000000000000000a165627a7a7230582001c4fe137d1682a8924e86eb4b899e0711517f26867619e9f938fa7a659711510029",
  "source": "pragma solidity ^0.4.23;\n\nimport \"openzeppelin-solidity/contracts/ReentrancyGuard.sol\";\nimport \"openzeppelin-solidity/contracts/math/SafeMath.sol\";\nimport \"./AddressArrayUtils.sol\";\nimport \"./IPFSWrapper.sol\";\nimport \"./KimonoCoin.sol\";\n\n\ncontract Kimono is IPFSWrapper, ReentrancyGuard {\n  using SafeMath for uint256;\n  using AddressArrayUtils for address[];\n\n  enum RevealStatus { NoShow, Late, OnTime }\n\n  struct Message {\n    address creator; // Address of the creator of the message\n    uint8 minFragments; // K-number of fragments needed to construct the secret\n    uint8 totalFragments; // Total number of fragments that will be distributed\n    uint40 revealBlock; // Block number for the start of the reveal period\n    uint40 revealPeriod; // Length of the period when it's okay to reveal secret fragments\n    address secretConstructor; // Address of the constructor of the secret\n    bool creatorWithdrewStake; // True if creator withdrew their stake (and punished no-showers)\n    bool secretConstructorWithdrewStake; // True if secret constructor withdrew their stake\n    uint8 onTimeRevealerCount; // Count of revealers who submitted their fragment before secret construction\n    uint256 revealSecret; // Secret that'll be used to decrypt the message\n    uint256 hashOfRevealSecret; // Hash of the revealSecret, submitted by the user and used for verification\n    uint256 timeLockReward; // Time lock reward staked by the creator of the message\n    IPFSMultiHash encryptedMessage; // IPFS multi-hash of the encrypted message\n    IPFSMultiHash encryptedFragments; // IPFS multi-hash of the fragments\n  }\n\n  struct Revealer {\n    bytes32 publicKey;\n    uint256 minReward;\n    uint256 stakePerMessage;\n  }\n\n  struct Fragment {\n    bytes32 piece1;\n    bytes18 piece2;\n  }\n\n  uint40 constant MINIMUM_REVEAL_PERIOD_LENGTH = 10; // in blocks\n\n  mapping (uint256 => Message) public nonceToMessage;\n  mapping (address => uint256[]) public revealerToMessages;\n  mapping (uint256 => address[]) public messageToRevealers;\n  mapping (uint256 => uint256) public messageToCreatedAt;\n  mapping (uint256 => mapping(address => Fragment)) public messageToRevealerToFragments;\n  mapping (uint256 => mapping(address => uint256)) public messageToRevealerToHashOfFragments;\n  mapping (uint256 => mapping(address => RevealStatus)) public messageToRevealerToRevealStatus;\n  mapping(address => Revealer) public revealerTable;\n  mapping(address => uint256) public totalStakes;\n  mapping(uint256 => mapping(address => uint256)) public messageToRevealerToStake;\n\n  address[] public eligibleRevealers;\n  address public kimonoCoinAddress;\n\n  // EVENTS\n\n  event MessageCreation(\n    uint256 nonce,\n    address creator,\n    bytes encryptedFragmentsIPFSHash,\n    address[] revealerAddresses\n  );\n  event FragmentReveal(\n    uint256 nonce,\n    address revealer,\n    uint8 minFragments,\n    uint8 onTimeRevealerCount,\n    bytes fragment\n  );\n  event SecretReveal(uint256 nonce, address revealer, uint256 secret);\n  event StakeWithdrawal(address withdrawer, uint256 amount);\n  event TattleTale(uint256 nonce, address tattler, address tattlee, bytes fragment);\n\n  // nonce => revealerAddress => balance\n\n  // CONSTRUCTOR\n  constructor (address _kimonoCoinAddress) public {\n    kimonoCoinAddress = _kimonoCoinAddress;\n  }\n\n  // FALLBACK FUNCTION\n\n  // Do nothing. Intentionally not payable.\n  function() public {\n\n  }\n\n  // MODIFIERS\n\n  modifier afterRevealPeriodStarts(uint256 _nonce) {\n    require(uint40(block.number) > nonceToMessage[_nonce].revealBlock, \"Reveal period did not start.\");\n    _;\n  }\n\n  modifier afterRevealPeriodEnds(uint256 _nonce) {\n    require(\n      uint40(block.number) > nonceToMessage[_nonce].revealBlock + nonceToMessage[_nonce].revealPeriod,\n      \"Reveal period is not over.\"\n    );\n    _;\n  }\n\n  modifier beforeRevealPeriodStarts(uint256 _nonce) {\n    require(uint40(block.number) < nonceToMessage[_nonce].revealBlock, \"Reveal period already started.\");\n    _;\n  }\n\n  modifier beforeRevealPeriodEnds(uint256 _nonce) {\n    require(\n      uint40(block.number) < nonceToMessage[_nonce].revealBlock + nonceToMessage[_nonce].revealPeriod,\n      \"Reveal period is over.\"\n    );\n    _;\n  }\n\n  modifier messageExists(uint256 _nonce) {\n    require(nonceToMessage[_nonce].creator != address(0), \"Message does not exist.\");\n    _;\n  }\n\n  modifier noDuplicates(address[] addresses) {\n    require(!addresses.hasDuplicate());\n    _;\n  }\n\n  modifier withValidFragment(uint256 _nonce, bytes _fragment, address revealer) {\n    Fragment memory fragment = splitBytesToFragment(_fragment);\n    require(\n      bytes32(messageToRevealerToHashOfFragments[_nonce][revealer]) == keccak256(fragment.piece1, fragment.piece2),\n      \"Revealer submitted an invalid fragment.\"\n    );\n    _;\n  }\n\n  // PUBLIC FUNCTIONS\n\n  function registerRevealer(\n    bytes32 _publicKey,\n    uint256 _minReward,\n    uint256 _stakePerMessage,\n    uint256 _totalStake\n  ) public nonReentrant {\n    // TODO: Can revealer update every single param they have?\n    // If not, add a check to make sure msg.sender doesn't exist.\n\n    Revealer memory revealer = Revealer({\n      publicKey: _publicKey,\n      minReward: _minReward,\n      stakePerMessage: _stakePerMessage\n    });\n    uint256 reservedAmount = getReservedAmount(msg.sender);\n    require(_totalStake >= reservedAmount);\n\n    uint256 oldTotalStake = totalStakes[msg.sender];\n    if (_totalStake == oldTotalStake) {\n    } else if (_totalStake > oldTotalStake) {\n      uint256 additionalStakeAmount = _totalStake.sub(oldTotalStake);\n      require(KimonoCoin(kimonoCoinAddress).transferFrom(msg.sender, address(this), additionalStakeAmount));\n    } else {\n      uint256 refundAmount = oldTotalStake.sub(_totalStake);\n      require(KimonoCoin(kimonoCoinAddress).transfer(msg.sender, refundAmount));\n    }\n    totalStakes[msg.sender] = _totalStake;\n    revealerTable[msg.sender] = revealer;\n\n    updateEligibleRevealer(msg.sender, reservedAmount, _stakePerMessage);\n  }\n\n  function updateEligibleRevealer(address _revealerAddress, uint256 _reservedAmount, uint256 _stakePerMessage)\n    internal\n  {\n    uint256 index;\n    bool isIn;\n    (index, isIn) = eligibleRevealers.indexOf(_revealerAddress);\n    if (totalStakes[_revealerAddress].sub(_reservedAmount) >= _stakePerMessage) {\n      if (!isIn) {\n        eligibleRevealers.push(_revealerAddress);\n      }\n    } else {\n      if (isIn) {\n        eligibleRevealers.remove(index);\n      }\n    }\n  }\n\n  function getReservedAmount(address _revealer) public view returns (uint256) {\n    uint256 reservedAmount = 0;\n    for(uint256 i = 0; i < revealerToMessages[_revealer].length; i++) {\n      uint256 nonce = revealerToMessages[_revealer][i];\n      reservedAmount = reservedAmount.add(messageToRevealerToStake[nonce][_revealer]);\n    }\n    return reservedAmount;\n  }\n\n  function createMessage(\n    uint256 _nonce,\n    uint8 _minFragments,\n    uint8 _totalFragments,\n    uint40 _revealBlock,\n    uint40 _revealPeriod,\n    uint256 _hashOfRevealSecret,\n    uint256 _timeLockReward,\n    address[] _revealerAddresses,\n    uint256[] _revealerHashOfFragments,\n    bytes _encryptedMessageIPFSHash,\n    bytes _encryptedFragmentsIPFSHash\n  )\n    public\n    noDuplicates(_revealerAddresses)\n  {\n    require(nonceToMessage[_nonce].creator == address(0), \"Message exists already.\");\n    require(_revealBlock > uint40(block.number), \"Reveal block is not in the future.\");\n    require(_revealPeriod >= MINIMUM_REVEAL_PERIOD_LENGTH, \"Reveal period is not long enough.\");\n    require(_minFragments >= 2, \"The minimum number of fragments is 2\");\n    require(_totalFragments == _revealerAddresses.length, \"Incorrect number of fragments\");\n    require(_totalFragments == _revealerHashOfFragments.length, \"Incorrect number of fragments\");\n\n    reserveStakes(_revealerAddresses, _nonce);\n\n    nonceToMessage[_nonce] = Message({\n      creator: msg.sender,\n      secretConstructor: address(0),\n      creatorWithdrewStake: false,\n      secretConstructorWithdrewStake: false,\n      minFragments: _minFragments,\n      totalFragments: _totalFragments,\n      onTimeRevealerCount: 0,\n      revealBlock: _revealBlock,\n      revealPeriod: _revealPeriod,\n      revealSecret: uint256(0),\n      hashOfRevealSecret: _hashOfRevealSecret,\n      timeLockReward: _timeLockReward,\n      encryptedMessage: splitIPFSHash(_encryptedMessageIPFSHash),\n      encryptedFragments: splitIPFSHash(_encryptedFragmentsIPFSHash)\n    });\n\n    for (uint256 i = 0; i < _revealerAddresses.length; i++) {\n      messageToRevealerToHashOfFragments[_nonce][_revealerAddresses[i]] = _revealerHashOfFragments[i];\n      revealerToMessages[_revealerAddresses[i]].push(_nonce);\n    }\n    messageToRevealers[_nonce] = _revealerAddresses;\n    messageToCreatedAt[_nonce] = block.timestamp;\n\n    // Transfer the _timeLockReward KimonoCoins to the contract from the creator.\n    // This will revert if the allowed amount in the KimonoCoin contract is insufficient.\n    require(KimonoCoin(kimonoCoinAddress).transferFrom(msg.sender, address(this), _timeLockReward));\n\n    emit MessageCreation(_nonce, msg.sender, _encryptedFragmentsIPFSHash, _revealerAddresses);\n  }\n\n  function reserveStakes(address[] _revealerAddresses, uint256 _nonce) internal {\n    for(uint256 i = 0; i < _revealerAddresses.length; i++) {\n      address revealerAddress = _revealerAddresses[i];\n      Revealer memory revealer = revealerTable[revealerAddress];\n\n      uint256 reservedAmount = getReservedAmount(msg.sender);\n      require(totalStakes[revealerAddress].sub(reservedAmount) > revealer.stakePerMessage);\n\n      revealerToMessages[revealerAddress].push(_nonce);\n      messageToRevealerToStake[_nonce][revealerAddress] = revealer.stakePerMessage;\n\n      updateEligibleRevealer(revealerAddress, reservedAmount, revealer.stakePerMessage);\n    }\n  }\n\n  function splitBytesToFragment(bytes _fragment) internal view returns (Fragment) {\n    bytes32 piece1 = bytes32(0);\n    bytes18 piece2 = bytes18(0);\n    uint256 i;\n\n    for (i = 0; i < 32; i++) {\n      piece1 |= bytes32(_fragment[i] & 0xFF) >> (i * 8);\n    }\n\n    for (i = 0; i < 18; i++) {\n      piece2 |= bytes18(_fragment[i + 32] & 0xFF) >> (i * 8);\n    }\n\n    return Fragment({\n      piece1: piece1,\n      piece2: piece2\n    });\n  }\n\n  function reconstructFragmentToBytes(Fragment _fragment) internal view returns (bytes) {\n    bytes memory result = new bytes(50);\n    uint256 i;\n    for (i = 0; i < 32; i++) {\n      result[i] = _fragment.piece1[i];\n    }\n\n    for (i = 32; i < 50; i++) {\n      result[i] = _fragment.piece2[i];\n    }\n\n    return result;\n  }\n\n  function revealFragment(uint256 _nonce, bytes _fragment)\n    public\n    messageExists(_nonce)\n    afterRevealPeriodStarts(_nonce)\n    beforeRevealPeriodEnds(_nonce)\n    withValidFragment(_nonce, _fragment, msg.sender)\n  {\n    require(\n      messageToRevealerToHashOfFragments[_nonce][msg.sender] != uint256(0),\n      \"Message sender is not part of the revealers.\"\n    );\n\n    messageToRevealerToHashOfFragments[_nonce][msg.sender] = uint256(0);\n    messageToRevealerToFragments[_nonce][msg.sender] = splitBytesToFragment(_fragment);\n\n    // Message is not revealed\n    if (nonceToMessage[_nonce].secretConstructor == address(0)) {\n      messageToRevealerToRevealStatus[_nonce][msg.sender] = RevealStatus.OnTime;\n      Message storage message = nonceToMessage[_nonce];\n      message.onTimeRevealerCount += 1;\n    } else {\n      messageToRevealerToRevealStatus[_nonce][msg.sender] = RevealStatus.Late;\n    }\n\n    emit FragmentReveal(_nonce, msg.sender, message.minFragments, message.onTimeRevealerCount, _fragment);\n  }\n\n  function submitRevealSecret(uint256 _nonce, uint256 _secret)\n    public\n    messageExists(_nonce)\n    afterRevealPeriodStarts(_nonce)\n  {\n    require(nonceToMessage[_nonce].secretConstructor == address(0), \"Message secret is already revealed.\");\n    require(\n      bytes32(nonceToMessage[_nonce].hashOfRevealSecret) == keccak256(_secret),\n      \"Revealer submitted an invalid secret.\"\n    );\n\n    // TODO: Remove fragments + hashes upon withdrawal to free space and get gas refund\n    Message storage message = nonceToMessage[_nonce];\n    message.revealSecret = _secret;\n    message.secretConstructor = msg.sender;\n\n    emit SecretReveal(_nonce, msg.sender, _secret);\n  }\n\n  function tattle(uint256 _nonce, bytes _fragment, address _tattlee)\n    public\n    messageExists(_nonce)\n    withValidFragment(_nonce, _fragment, _tattlee)\n    beforeRevealPeriodStarts(_nonce)\n  {\n    uint256 balance = messageToRevealerToStake[_nonce][_tattlee];\n    messageToRevealerToStake[_nonce][_tattlee] = 0;\n\n    messageToRevealerToHashOfFragments[_nonce][_tattlee] = uint256(0);\n    messageToRevealerToFragments[_nonce][_tattlee] = splitBytesToFragment(_fragment);\n\n    require(KimonoCoin(kimonoCoinAddress).transferFrom(address(this), msg.sender, balance));\n    emit TattleTale(_nonce, msg.sender, _tattlee, _fragment);\n  }\n\n  function withdrawStake(uint256 _nonce)\n    public\n    messageExists(_nonce)\n    afterRevealPeriodEnds(_nonce)\n  {\n    Message storage message = nonceToMessage[_nonce];\n    uint256 amount = 0;\n\n    // TODO: Remove fragments + hashes upon withdrawal to free space and get gas refund\n\n    // Creator punishes no-shows\n    if (msg.sender == message.creator && !message.creatorWithdrewStake) {\n      message.creatorWithdrewStake = true;\n      amount = amount.add(adjustTotalNoShowStake(_nonce));\n    }\n\n    // Reward secret constructor\n    if (msg.sender == message.secretConstructor && !message.secretConstructorWithdrewStake) {\n      message.secretConstructorWithdrewStake = true;\n      amount = amount.add(message.timeLockReward.div(uint256(message.onTimeRevealerCount + 1)));\n    }\n\n    // Revealer showed up, so return stake\n    if (messageToRevealerToRevealStatus[_nonce][msg.sender] != RevealStatus.NoShow) {\n      amount = amount.add(adjustRevealerStake(_nonce));\n    }\n\n    if (amount > 0) {\n      require(KimonoCoin(kimonoCoinAddress).transfer(msg.sender, amount));\n      emit StakeWithdrawal(msg.sender, amount);\n    }\n  }\n\n  function adjustRevealerStake(uint256 _nonce) internal returns (uint256) {\n    Message memory message = nonceToMessage[_nonce];\n    uint256 amount = 0;\n    uint256 oldBalance = messageToRevealerToStake[_nonce][msg.sender];\n\n    // No need to see if msg.sender is part of the revealers. If they aren't, the balance will be 0\n    if (oldBalance > 0) {\n      messageToRevealerToStake[_nonce][msg.sender] = 0;\n      totalStakes[msg.sender] = totalStakes[msg.sender].sub(oldBalance);\n      amount = amount.add(oldBalance);\n\n      // Revealer was on time, so also give the reward\n      if (messageToRevealerToRevealStatus[_nonce][msg.sender] == RevealStatus.OnTime) {\n        amount = amount.add(message.timeLockReward.div(uint256(message.onTimeRevealerCount + 1)));\n      }\n    }\n\n    return amount;\n  }\n\n  function adjustTotalNoShowStake(uint256 _nonce) internal returns (uint256) {\n    uint256 amount = 0;\n    for (uint256 i = 0; i < messageToRevealers[_nonce].length; i++) {\n      address revealer = messageToRevealers[_nonce][i];\n      if (messageToRevealerToRevealStatus[_nonce][revealer] == RevealStatus.NoShow) {\n        uint256 oldBalance = messageToRevealerToStake[_nonce][revealer];\n        messageToRevealerToStake[_nonce][revealer] = 0;\n        totalStakes[revealer] = totalStakes[revealer].sub(oldBalance);\n        amount = amount.add(oldBalance);\n      }\n    }\n    return amount;\n  }\n\n  function getMessage(uint256 _nonce)\n    external\n    view\n    returns (\n      uint256 nonce,\n      address creator,\n      address secretConstructor,\n      uint8 minFragments,\n      uint8 totalFragments,\n      uint40 revealBlock,\n      uint40 revealPeriod,\n      uint256 revealSecret,\n      uint256 hashOfRevealSecret,\n      uint256 timeLockReward,\n      bytes encryptedMessage,\n      bytes encryptedFragments\n    )\n  {\n    Message memory message = nonceToMessage[_nonce];\n    return (\n      _nonce,\n      message.creator,\n      message.secretConstructor,\n      message.minFragments,\n      message.totalFragments,\n      message.revealBlock,\n      message.revealPeriod,\n      message.revealSecret,\n      message.hashOfRevealSecret,\n      message.timeLockReward,\n      combineIPFSHash(message.encryptedMessage),\n      combineIPFSHash(message.encryptedFragments)\n    );\n  }\n\n  function getMessageCreatedAt(uint256 _nonce) external view returns (uint256) {\n    return messageToCreatedAt[_nonce];\n  }\n\n  function getMessageNoncesForRevealer(address _revealer) external view returns (uint256[] nonces) {\n    return revealerToMessages[_revealer];\n  }\n\n  function getEligibleRevealersCount() external view returns(uint256 count) {\n    return eligibleRevealers.length;\n  }\n\n  function getFragmentByMessageAndRevealer(uint256 _nonce, address _revealer)\n    external\n    view\n    returns(bytes32 piece1, bytes18 piece2)\n  {\n    Fragment memory fragment = messageToRevealerToFragments[_nonce][_revealer];\n    return (fragment.piece1, fragment.piece2);\n  }\n\n  function test_getFragmentHash(bytes _fragment) external view returns (bytes32 hash) {\n    Fragment memory fragment = splitBytesToFragment(_fragment);\n    return keccak256(fragment.piece1, fragment.piece2);\n  }\n\n  function test_compareFragmentHash(uint256 fragmentHash, bytes _fragment) external view returns (bytes32 hash, bytes32 realHash, bool isEqual) {\n    Fragment memory fragment = splitBytesToFragment(_fragment);\n    return (\n      bytes32(fragmentHash),\n      keccak256(fragment.piece1, fragment.piece2),\n      bytes32(fragmentHash) == keccak256(fragment.piece1, fragment.piece2)\n    );\n  }\n}\n",
  "sourcePath": "/Users/fmc/Desktop/Projects/kimono/contracts/contracts/Kimono.sol",
  "compiler": {
    "name": "solc",
    "version": "0.4.23+commit.124ca40d.Emscripten.clang"
  },
  "schemaVersion": "2.0.0",
  "updatedAt": "2018-05-27T10:26:33.676Z"
}