{
  "contractName": "KimonoCoin",
  "abi": [
    {
      "constant": true,
      "inputs": [],
      "name": "mintingFinished",
      "outputs": [
        {
          "name": "",
          "type": "bool"
        }
      ],
      "payable": false,
      "stateMutability": "view",
      "type": "function"
    },
    {
      "constant": true,
      "inputs": [],
      "name": "name",
      "outputs": [
        {
          "name": "",
          "type": "string"
        }
      ],
      "payable": false,
      "stateMutability": "view",
      "type": "function"
    },
    {
      "constant": false,
      "inputs": [
        {
          "name": "_spender",
          "type": "address"
        },
        {
          "name": "_value",
          "type": "uint256"
        }
      ],
      "name": "approve",
      "outputs": [
        {
          "name": "",
          "type": "bool"
        }
      ],
      "payable": false,
      "stateMutability": "nonpayable",
      "type": "function"
    },
    {
      "constant": true,
      "inputs": [],
      "name": "totalSupply",
      "outputs": [
        {
          "name": "",
          "type": "uint256"
        }
      ],
      "payable": false,
      "stateMutability": "view",
      "type": "function"
    },
    {
      "constant": true,
      "inputs": [],
      "name": "decimals",
      "outputs": [
        {
          "name": "",
          "type": "uint8"
        }
      ],
      "payable": false,
      "stateMutability": "view",
      "type": "function"
    },
    {
      "constant": false,
      "inputs": [
        {
          "name": "_to",
          "type": "address"
        },
        {
          "name": "_amount",
          "type": "uint256"
        }
      ],
      "name": "mint",
      "outputs": [
        {
          "name": "",
          "type": "bool"
        }
      ],
      "payable": false,
      "stateMutability": "nonpayable",
      "type": "function"
    },
    {
      "constant": false,
      "inputs": [
        {
          "name": "_value",
          "type": "uint256"
        }
      ],
      "name": "burn",
      "outputs": [],
      "payable": false,
      "stateMutability": "nonpayable",
      "type": "function"
    },
    {
      "constant": false,
      "inputs": [
        {
          "name": "_spender",
          "type": "address"
        },
        {
          "name": "_subtractedValue",
          "type": "uint256"
        }
      ],
      "name": "decreaseApproval",
      "outputs": [
        {
          "name": "",
          "type": "bool"
        }
      ],
      "payable": false,
      "stateMutability": "nonpayable",
      "type": "function"
    },
    {
      "constant": true,
      "inputs": [
        {
          "name": "_owner",
          "type": "address"
        }
      ],
      "name": "balanceOf",
      "outputs": [
        {
          "name": "",
          "type": "uint256"
        }
      ],
      "payable": false,
      "stateMutability": "view",
      "type": "function"
    },
    {
      "constant": false,
      "inputs": [],
      "name": "finishMinting",
      "outputs": [
        {
          "name": "",
          "type": "bool"
        }
      ],
      "payable": false,
      "stateMutability": "nonpayable",
      "type": "function"
    },
    {
      "constant": true,
      "inputs": [],
      "name": "owner",
      "outputs": [
        {
          "name": "",
          "type": "address"
        }
      ],
      "payable": false,
      "stateMutability": "view",
      "type": "function"
    },
    {
      "constant": true,
      "inputs": [],
      "name": "symbol",
      "outputs": [
        {
          "name": "",
          "type": "string"
        }
      ],
      "payable": false,
      "stateMutability": "view",
      "type": "function"
    },
    {
      "constant": false,
      "inputs": [
        {
          "name": "_to",
          "type": "address"
        },
        {
          "name": "_value",
          "type": "uint256"
        }
      ],
      "name": "transfer",
      "outputs": [
        {
          "name": "",
          "type": "bool"
        }
      ],
      "payable": false,
      "stateMutability": "nonpayable",
      "type": "function"
    },
    {
      "constant": false,
      "inputs": [
        {
          "name": "_spender",
          "type": "address"
        },
        {
          "name": "_addedValue",
          "type": "uint256"
        }
      ],
      "name": "increaseApproval",
      "outputs": [
        {
          "name": "",
          "type": "bool"
        }
      ],
      "payable": false,
      "stateMutability": "nonpayable",
      "type": "function"
    },
    {
      "constant": true,
      "inputs": [
        {
          "name": "_owner",
          "type": "address"
        },
        {
          "name": "_spender",
          "type": "address"
        }
      ],
      "name": "allowance",
      "outputs": [
        {
          "name": "",
          "type": "uint256"
        }
      ],
      "payable": false,
      "stateMutability": "view",
      "type": "function"
    },
    {
      "constant": false,
      "inputs": [
        {
          "name": "newOwner",
          "type": "address"
        }
      ],
      "name": "transferOwnership",
      "outputs": [],
      "payable": false,
      "stateMutability": "nonpayable",
      "type": "function"
    },
    {
      "inputs": [],
      "payable": false,
      "stateMutability": "nonpayable",
      "type": "constructor"
    },
    {
      "payable": false,
      "stateMutability": "nonpayable",
      "type": "fallback"
    },
    {
      "anonymous": false,
      "inputs": [
        {
          "indexed": false,
          "name": "sender",
          "type": "address"
        },
        {
          "indexed": false,
          "name": "spender",
          "type": "address"
        }
      ],
      "name": "ApproveAll",
      "type": "event"
    },
    {
      "anonymous": false,
      "inputs": [
        {
          "indexed": false,
          "name": "account",
          "type": "address"
        },
        {
          "indexed": false,
          "name": "amount",
          "type": "uint256"
        }
      ],
      "name": "TestingDistributeTokens",
      "type": "event"
    },
    {
      "anonymous": false,
      "inputs": [
        {
          "indexed": false,
          "name": "account",
          "type": "address"
        }
      ],
      "name": "Faucet",
      "type": "event"
    },
    {
      "anonymous": false,
      "inputs": [
        {
          "indexed": true,
          "name": "burner",
          "type": "address"
        },
        {
          "indexed": false,
          "name": "value",
          "type": "uint256"
        }
      ],
      "name": "Burn",
      "type": "event"
    },
    {
      "anonymous": false,
      "inputs": [
        {
          "indexed": true,
          "name": "to",
          "type": "address"
        },
        {
          "indexed": false,
          "name": "amount",
          "type": "uint256"
        }
      ],
      "name": "Mint",
      "type": "event"
    },
    {
      "anonymous": false,
      "inputs": [],
      "name": "MintFinished",
      "type": "event"
    },
    {
      "anonymous": false,
      "inputs": [
        {
          "indexed": true,
          "name": "previousOwner",
          "type": "address"
        },
        {
          "indexed": true,
          "name": "newOwner",
          "type": "address"
        }
      ],
      "name": "OwnershipTransferred",
      "type": "event"
    },
    {
      "anonymous": false,
      "inputs": [
        {
          "indexed": true,
          "name": "owner",
          "type": "address"
        },
        {
          "indexed": true,
          "name": "spender",
          "type": "address"
        },
        {
          "indexed": false,
          "name": "value",
          "type": "uint256"
        }
      ],
      "name": "Approval",
      "type": "event"
    },
    {
      "anonymous": false,
      "inputs": [
        {
          "indexed": true,
          "name": "from",
          "type": "address"
        },
        {
          "indexed": true,
          "name": "to",
          "type": "address"
        },
        {
          "indexed": false,
          "name": "value",
          "type": "uint256"
        }
      ],
      "name": "Transfer",
      "type": "event"
    },
    {
      "constant": false,
      "inputs": [
        {
          "name": "_spender",
          "type": "address"
        }
      ],
      "name": "approveAll",
      "outputs": [
        {
          "name": "",
          "type": "bool"
        }
      ],
      "payable": false,
      "stateMutability": "nonpayable",
      "type": "function"
    },
    {
      "constant": false,
      "inputs": [
        {
          "name": "_from",
          "type": "address"
        },
        {
          "name": "_to",
          "type": "address"
        },
        {
          "name": "_value",
          "type": "uint256"
        }
      ],
      "name": "transferFrom",
      "outputs": [
        {
          "name": "",
          "type": "bool"
        }
      ],
      "payable": false,
      "stateMutability": "nonpayable",
      "type": "function"
    },
    {
      "constant": false,
      "inputs": [],
      "name": "faucet",
      "outputs": [
        {
          "name": "",
          "type": "bool"
        }
      ],
      "payable": false,
      "stateMutability": "nonpayable",
      "type": "function"
    },
    {
      "constant": false,
      "inputs": [
        {
          "name": "_accounts",
          "type": "address[]"
        },
        {
          "name": "_amount",
          "type": "uint256"
        }
      ],
      "name": "distributeTokensForTesting",
      "outputs": [
        {
          "name": "",
          "type": "bool"
        }
      ],
      "payable": false,
      "stateMutability": "nonpayable",
      "type": "function"
    }
  ],
  "bytecode": "0x60806040526003805460a060020a60ff021916905534801561002057600080fd5b5060038054600160a060020a03191633600160a060020a0316179055610f3b8061004b6000396000f3006080604052600436106101115763ffffffff7c010000000000000000000000000000000000000000000000000000000060003504166305d2035b81146101205780630621472c1461014957806306fdde031461016a578063095ea7b3146101f457806318160ddd1461021857806323b872dd1461023f578063292c9d0f14610269578063313ce567146102c057806340c10f19146102eb57806342966c681461030f578063661884631461032957806370a082311461034d5780637d64bcb41461036e5780638da5cb5b1461038357806395d89b41146103b4578063a9059cbb146103c9578063d73dd623146103ed578063dd62ed3e14610411578063de5f72fd14610438578063f2fde38b1461044d575b34801561011d57600080fd5b50005b34801561012c57600080fd5b5061013561046e565b604080519115158252519081900360200190f35b34801561015557600080fd5b50610135600160a060020a036004351661047e565b34801561017657600080fd5b5061017f6104eb565b6040805160208082528351818301528351919283929083019185019080838360005b838110156101b95781810151838201526020016101a1565b50505050905090810190601f1680156101e65780820380516001836020036101000a031916815260200191505b509250505060405180910390f35b34801561020057600080fd5b50610135600160a060020a0360043516602435610522565b34801561022457600080fd5b5061022d61058c565b60408051918252519081900360200190f35b34801561024b57600080fd5b50610135600160a060020a0360043581169060243516604435610592565b34801561027557600080fd5b50604080516020600480358082013583810280860185019096528085526101359536959394602494938501929182918501908490808284375094975050933594506106ae9350505050565b3480156102cc57600080fd5b506102d5610774565b6040805160ff9092168252519081900360200190f35b3480156102f757600080fd5b50610135600160a060020a0360043516602435610779565b34801561031b57600080fd5b50610327600435610875565b005b34801561033557600080fd5b50610135600160a060020a0360043516602435610882565b34801561035957600080fd5b5061022d600160a060020a036004351661097b565b34801561037a57600080fd5b50610135610996565b34801561038f57600080fd5b50610398610a1e565b60408051600160a060020a039092168252519081900360200190f35b3480156103c057600080fd5b5061017f610a2d565b3480156103d557600080fd5b50610135600160a060020a0360043516602435610a64565b3480156103f957600080fd5b50610135600160a060020a0360043516602435610b4b565b34801561041d57600080fd5b5061022d600160a060020a0360043581169060243516610bed565b34801561044457600080fd5b50610135610c18565b34801561045957600080fd5b50610327600160a060020a0360043516610d42565b60035460a060020a900460ff1681565b600160a060020a0333811660008181526002602090815260408083209486168084529482528083206000199055805193845290830193909352825190927f1a25e2ce8cb03bafbc4c15a84efed52b39a281cd75cfbb978dd3d91b6d53afb3928290030190a1506001919050565b60408051808201909152600b81527f4b696d6f6e6f20436f696e000000000000000000000000000000000000000000602082015281565b600160a060020a03338116600081815260026020908152604080832094871680845294825280832086905580518681529051929493927f8c5be1e5ebec7d5bd14f71427d1e84f3dd0314c0f7b2291e5b200ac8c7c3b925929181900390910190a350600192915050565b60015490565b600160a060020a038084166000818152600260209081526040808320339095168352938152838220549282528190529182205483118015906105d45750828110155b80156105fa5750600160a060020a03841660009081526020819052604090205483810110155b151561060557600080fd5b600160a060020a038085166000908152602081905260408082208054870190559187168152208054849003905560001981101561066a57600160a060020a03808616600090815260026020908152604080832033909416835292905220805484900390555b83600160a060020a031685600160a060020a0316600080516020610ef0833981519152856040518082815260200191505060405180910390a3506001949350505050565b6003546000908190819033600160a060020a039081169116146106d057600080fd5b60035460a060020a900460ff16156106e757600080fd5b600091505b845182101561076957848281518110151561070357fe5b9060200190602002015190506107198185610779565b5060408051600160a060020a03831681526020810186905281517f530ad525418dcb6ba7d302959a27685d17e2f2c793b610be6a8fae3e5b81dc44929181900390910190a16001909101906106ec565b506001949350505050565b601281565b60035460009033600160a060020a0390811691161461079757600080fd5b60035460a060020a900460ff16156107ae57600080fd5b6001546107c1908363ffffffff610ddb16565b600155600160a060020a0383166000908152602081905260409020546107ed908363ffffffff610ddb16565b600160a060020a03841660008181526020818152604091829020939093558051858152905191927f0f6798a560793a54c3bcfe86a93cde1e73087d944c0ea20544137d412139688592918290030190a2604080518381529051600160a060020a03851691600091600080516020610ef08339815191529181900360200190a350600192915050565b61087f3382610dee565b50565b600160a060020a033381166000908152600260209081526040808320938616835292905290812054808311156108df57600160a060020a033381166000908152600260209081526040808320938816835292905290812055610916565b6108ef818463ffffffff610edd16565b600160a060020a033381166000908152600260209081526040808320938916835292905220555b600160a060020a0333811660008181526002602090815260408083209489168084529482529182902054825190815291517f8c5be1e5ebec7d5bd14f71427d1e84f3dd0314c0f7b2291e5b200ac8c7c3b9259281900390910190a35060019392505050565b600160a060020a031660009081526020819052604090205490565b60035460009033600160a060020a039081169116146109b457600080fd5b60035460a060020a900460ff16156109cb57600080fd5b6003805474ff0000000000000000000000000000000000000000191660a060020a1790556040517fae5184fba832cb2b1f702aca6117b8d265eaf03ad33eb133f19dde0f5920fa0890600090a150600190565b600354600160a060020a031681565b60408051808201909152600481527f4f50454e00000000000000000000000000000000000000000000000000000000602082015281565b6000600160a060020a0383161515610a7b57600080fd5b600160a060020a033316600090815260208190526040902054821115610aa057600080fd5b600160a060020a033316600090815260208190526040902054610ac9908363ffffffff610edd16565b600160a060020a033381166000908152602081905260408082209390935590851681522054610afe908363ffffffff610ddb16565b600160a060020a0380851660008181526020818152604091829020949094558051868152905191933390931692600080516020610ef083398151915292918290030190a350600192915050565b600160a060020a033381166000908152600260209081526040808320938616835292905290812054610b83908363ffffffff610ddb16565b600160a060020a0333811660008181526002602090815260408083209489168084529482529182902085905581519485529051929391927f8c5be1e5ebec7d5bd14f71427d1e84f3dd0314c0f7b2291e5b200ac8c7c3b9259281900390910190a350600192915050565b600160a060020a03918216600090815260026020908152604080832093909416825291909152205490565b600354600090819060a060020a900460ff1615610c3457600080fd5b50600154683635c9adc5dea0000090610c53908263ffffffff610ddb16565b600155600160a060020a033316600090815260208190526040902054610c7f908263ffffffff610ddb16565b600160a060020a03331660008181526020818152604091829020939093558051848152905191927f0f6798a560793a54c3bcfe86a93cde1e73087d944c0ea20544137d412139688592918290030190a2604080518281529051600160a060020a03331691600091600080516020610ef08339815191529181900360200190a360408051600160a060020a033316815290517f7ef92867d9aa08abd1cbf8d5f6e03582f8bdfdba916df3d967487fbcde1baf5e9181900360200190a1600191505090565b60035433600160a060020a03908116911614610d5d57600080fd5b600160a060020a0381161515610d7257600080fd5b600354604051600160a060020a038084169216907f8be0079c531659141344cd1fd0a4f28419497f9722a3daafe3b4186f6b6457e090600090a36003805473ffffffffffffffffffffffffffffffffffffffff1916600160a060020a0392909216919091179055565b81810182811015610de857fe5b92915050565b600160a060020a038216600090815260208190526040902054811115610e1357600080fd5b600160a060020a038216600090815260208190526040902054610e3c908263ffffffff610edd16565b600160a060020a038316600090815260208190526040902055600154610e68908263ffffffff610edd16565b600155604080518281529051600160a060020a038416917fcc16f5dbb4873280815c1ee09dbd06736cffcc184412cf7a71a0fdb75d397ca5919081900360200190a2604080518281529051600091600160a060020a03851691600080516020610ef08339815191529181900360200190a35050565b600082821115610ee957fe5b509003905600ddf252ad1be2c89b69c2b068fc378daa952ba7f163c4a11628f55a4df523b3efa165627a7a72305820216c170fb7bf3085325c54dcefddf78cd6d2b164da63d37de2c289efd1d854560029",
  "source": "pragma solidity ^0.4.23;\n\nimport \"openzeppelin-solidity/contracts/token/ERC20/BurnableToken.sol\";\nimport \"openzeppelin-solidity/contracts/token/ERC20/MintableToken.sol\";\n\n\ncontract KimonoCoin is MintableToken, BurnableToken {\n  string constant public name = \"Kimono Coin\"; // solium-disable-line uppercase\n  string constant public symbol = \"OPEN\"; // solium-disable-line uppercase\n  uint8 constant public decimals = 18; // solium-disable-line uppercase\n\n  uint256 constant MAX_UINT = 2**256 - 1;\n\n  // EVENTS\n\n  event ApproveAll(address sender, address spender);\n  event TestingDistributeTokens(address account, uint256 amount);\n  event Faucet(address account);\n\n  // CONSTRUCTOR\n\n  constructor () public {\n\n  }\n\n  // FALLBACK function\n\n  // Do nothing. Intentionally not payable.\n  function() public {\n\n  }\n\n  // PUBLIC FUNCTIONS\n\n  function approveAll(address _spender) public returns (bool) {\n    allowed[msg.sender][_spender] = MAX_UINT;\n    emit ApproveAll(msg.sender, _spender);\n    return true;\n  }\n\n  function transferFrom(address _from, address _to, uint _value)\n    public\n    returns (bool)\n  {\n    uint allowance = allowed[_from][msg.sender];\n    require(balances[_from] >= _value && allowance >= _value && balances[_to] + _value >= balances[_to]);\n    balances[_to] += _value;\n    balances[_from] -= _value;\n    if (allowance < MAX_UINT) {\n      allowed[_from][msg.sender] -= _value;\n    }\n    emit Transfer(_from, _to, _value);\n    return true;\n  }\n\n  function faucet()\n    public\n    canMint\n    returns (bool)\n  {\n    uint256 tokensToMint = 1000 * 10 ** 18; // 1000 KimonoCoin\n    totalSupply_ = totalSupply_.add(tokensToMint);\n    balances[msg.sender] = balances[msg.sender].add(tokensToMint);\n\n    emit Mint(msg.sender, tokensToMint);\n    emit Transfer(address(0), msg.sender, tokensToMint);\n    emit Faucet(msg.sender);\n    return true;\n  }\n\n  // FUNCTIONS FOR TESTING PURPOSES\n\n  function distributeTokensForTesting(address[] _accounts, uint256 _amount)\n    public\n    onlyOwner\n    canMint\n    returns (bool)\n  {\n    for (uint i = 0; i < _accounts.length; i++) {\n      address to = _accounts[i];\n      mint(to, _amount);\n      emit TestingDistributeTokens(to, _amount);\n    }\n    return true;\n  }\n}\n",
  "sourcePath": "/Users/fmc/Desktop/Projects/kimono/contracts/contracts/KimonoCoin.sol",
  "compiler": {
    "name": "solc",
    "version": "0.4.23+commit.124ca40d.Emscripten.clang"
  },
  "schemaVersion": "2.0.0",
  "updatedAt": "2018-05-27T10:26:33.662Z"
}